{
    "_format": "hh-sol-artifact-1",
    "contractName": "StandardTokenFactory",
    "sourceName": "contracts/factories/StandardTokenFactory.sol",
    "abi": [
        {
            "inputs": [
                {
                    "internalType": "address payable",
                    "name": "_feeReceiver",
                    "type": "address"
                },
                {
                    "internalType": "uint256",
                    "name": "_feeAmount",
                    "type": "uint256"
                }
            ],
            "stateMutability": "nonpayable",
            "type": "constructor"
        },
        {
            "anonymous": false,
            "inputs": [
                {
                    "indexed": true,
                    "internalType": "address",
                    "name": "previousOwner",
                    "type": "address"
                },
                {
                    "indexed": true,
                    "internalType": "address",
                    "name": "newOwner",
                    "type": "address"
                }
            ],
            "name": "OwnershipTransferred",
            "type": "event"
        },
        {
            "anonymous": false,
            "inputs": [
                {
                    "indexed": false,
                    "internalType": "address",
                    "name": "tokenAddress",
                    "type": "address"
                }
            ],
            "name": "TokenCreated",
            "type": "event"
        },
        {
            "inputs": [
                {
                    "internalType": "string",
                    "name": "name",
                    "type": "string"
                },
                {
                    "internalType": "string",
                    "name": "symbol",
                    "type": "string"
                },
                {
                    "internalType": "uint8",
                    "name": "decimals",
                    "type": "uint8"
                },
                {
                    "internalType": "uint256",
                    "name": "totalSupply",
                    "type": "uint256"
                }
            ],
            "name": "createContract",
            "outputs": [],
            "stateMutability": "payable",
            "type": "function"
        },
        {
            "inputs": [],
            "name": "feeAmount",
            "outputs": [
                {
                    "internalType": "uint256",
                    "name": "",
                    "type": "uint256"
                }
            ],
            "stateMutability": "view",
            "type": "function"
        },
        {
            "inputs": [],
            "name": "owner",
            "outputs": [
                {
                    "internalType": "address",
                    "name": "",
                    "type": "address"
                }
            ],
            "stateMutability": "view",
            "type": "function"
        },
        {
            "inputs": [],
            "name": "renounceOwnership",
            "outputs": [],
            "stateMutability": "nonpayable",
            "type": "function"
        },
        {
            "inputs": [
                {
                    "internalType": "address",
                    "name": "newOwner",
                    "type": "address"
                }
            ],
            "name": "transferOwnership",
            "outputs": [],
            "stateMutability": "nonpayable",
            "type": "function"
        },
        {
            "inputs": [
                {
                    "internalType": "uint256",
                    "name": "_feeAmount",
                    "type": "uint256"
                }
            ],
            "name": "updateFee",
            "outputs": [],
            "stateMutability": "nonpayable",
            "type": "function"
        },
        {
            "inputs": [
                {
                    "internalType": "address payable",
                    "name": "_feeReceiver",
                    "type": "address"
                }
            ],
            "name": "updateFeeReceiver",
            "outputs": [],
            "stateMutability": "nonpayable",
            "type": "function"
        }
    ],
    "bytecode": "0x608060405234801561001057600080fd5b5060405161184b38038061184b83398101604081905261002f916100b1565b61003833610061565b600180546001600160a01b0319166001600160a01b0393909316929092179091556002556100e9565b600080546001600160a01b038381166001600160a01b0319831681178455604051919092169283917f8be0079c531659141344cd1fd0a4f28419497f9722a3daafe3b4186f6b6457e09190a35050565b600080604083850312156100c3578182fd5b82516001600160a01b03811681146100d9578283fd5b6020939093015192949293505050565b611753806100f86000396000f3fe608060405260043610620000795760003560e01c80639012c4a811620000545780639012c4a814620000ed578063c69bebe41462000112578063d928622f1462000137578063f2fde38b146200014e57600080fd5b806369e15404146200007e578063715018a614620000a95780638da5cb5b14620000c3575b600080fd5b3480156200008b57600080fd5b506200009660025481565b6040519081526020015b60405180910390f35b348015620000b657600080fd5b50620000c162000173565b005b348015620000d057600080fd5b506000546040516001600160a01b039091168152602001620000a0565b348015620000fa57600080fd5b50620000c16200010c366004620006da565b6200018b565b3480156200011f57600080fd5b50620000c1620001313660046200060a565b6200019a565b620000c16200014836600462000652565b620001c6565b3480156200015b57600080fd5b50620000c16200016d3660046200060a565b62000442565b6200017d620004c1565b6200018960006200051d565b565b62000195620004c1565b600255565b620001a4620004c1565b600180546001600160a01b0319166001600160a01b0392909216919091179055565b60025434146200021d5760405162461bcd60e51b815260206004820152601b60248201527f466565206469646e27742063686172676520636f72726563746c79000000000060448201526064015b60405180910390fd5b60008484848460405162000231906200056d565b6200024094939291906200075a565b604051809103906000f0801580156200025d573d6000803e3d6000fd5b509050806001600160a01b031663a9059cbb33836001600160a01b03166318160ddd6040518163ffffffff1660e01b815260040160206040518083038186803b158015620002aa57600080fd5b505afa158015620002bf573d6000803e3d6000fd5b505050506040513d601f19601f82011682018060405250810190620002e59190620006f3565b6040516001600160e01b031960e085901b1681526001600160a01b0390921660048301526024820152604401602060405180830381600087803b1580156200032c57600080fd5b505af115801562000341573d6000803e3d6000fd5b505050506040513d601f19601f8201168201806040525081019062000367919062000630565b5060405163f2fde38b60e01b81523360048201526001600160a01b0382169063f2fde38b90602401600060405180830381600087803b158015620003aa57600080fd5b505af1158015620003bf573d6000803e3d6000fd5b50506001546040516001600160a01b0390911692503480156108fc029250906000818181858888f19350505050158015620003fe573d6000803e3d6000fd5b506040516001600160a01b03821681527f2e2b3f61b70d2d131b2a807371103cc98d51adcaa5e9a8f9c32658ad8426e74e9060200160405180910390a15050505050565b6200044c620004c1565b6001600160a01b038116620004b35760405162461bcd60e51b815260206004820152602660248201527f4f776e61626c653a206e6577206f776e657220697320746865207a65726f206160448201526564647265737360d01b606482015260840162000214565b620004be816200051d565b50565b6000546001600160a01b03163314620001895760405162461bcd60e51b815260206004820181905260248201527f4f776e61626c653a2063616c6c6572206973206e6f7420746865206f776e6572604482015260640162000214565b600080546001600160a01b038381166001600160a01b0319831681178455604051919092169283917f8be0079c531659141344cd1fd0a4f28419497f9722a3daafe3b4186f6b6457e09190a35050565b610f5780620007c783390190565b600082601f8301126200058c578081fd5b813567ffffffffffffffff80821115620005aa57620005aa6200079a565b604051601f8301601f19908116603f01168101908282118183101715620005d557620005d56200079a565b81604052838152866020858801011115620005ee578485fd5b8360208701602083013792830160200193909352509392505050565b6000602082840312156200061c578081fd5b81356200062981620007b0565b9392505050565b60006020828403121562000642578081fd5b8151801515811462000629578182fd5b6000806000806080858703121562000668578283fd5b843567ffffffffffffffff8082111562000680578485fd5b6200068e888389016200057b565b95506020870135915080821115620006a4578485fd5b50620006b3878288016200057b565b935050604085013560ff81168114620006ca578283fd5b9396929550929360600135925050565b600060208284031215620006ec578081fd5b5035919050565b60006020828403121562000705578081fd5b5051919050565b60008151808452815b81811015620007335760208185018101518683018201520162000715565b81811115620007455782602083870101525b50601f01601f19169290920160200192915050565b6080815260006200076f60808301876200070c565b82810360208401526200078381876200070c565b60ff95909516604084015250506060015292915050565b634e487b7160e01b600052604160045260246000fd5b6001600160a01b0381168114620004be57600080fdfe60806040523480156200001157600080fd5b5060405162000f5738038062000f578339810160408190526200003491620003c4565b6200003f33620000fc565b8351620000549060039060208701906200026b565b5082516200006a9060049060208601906200026b565b506005805460ff191660ff841617905562000098620000916000546001600160a01b031690565b826200014c565b30620000ac6000546001600160a01b031690565b6001600160a01b03167f56358b41df5fa59f5639228f0930994cbdde383c8a8fd74e06c04e1deebe356260006001604051620000ea9291906200044b565b60405180910390a350505050620004f0565b600080546001600160a01b038381166001600160a01b0319831681178455604051919092169283917f8be0079c531659141344cd1fd0a4f28419497f9722a3daafe3b4186f6b6457e09190a35050565b6001600160a01b038216620001a75760405162461bcd60e51b815260206004820152601f60248201527f45524332303a206d696e7420746f20746865207a65726f206164647265737300604482015260640160405180910390fd5b620001c3816006546200025660201b6200049c1790919060201c565b6006556001600160a01b038216600090815260016020908152604090912054620001f89183906200049c62000256821b17901c565b6001600160a01b0383166000818152600160205260408082209390935591519091907fddf252ad1be2c89b69c2b068fc378daa952ba7f163c4a11628f55a4df523b3ef906200024a9085815260200190565b60405180910390a35050565b600062000264828462000478565b9392505050565b82805462000279906200049d565b90600052602060002090601f0160209004810192826200029d5760008555620002e8565b82601f10620002b857805160ff1916838001178555620002e8565b82800160010185558215620002e8579182015b82811115620002e8578251825591602001919060010190620002cb565b50620002f6929150620002fa565b5090565b5b80821115620002f65760008155600101620002fb565b600082601f83011262000322578081fd5b81516001600160401b03808211156200033f576200033f620004da565b604051601f8301601f19908116603f011681019082821181831017156200036a576200036a620004da565b8160405283815260209250868385880101111562000386578485fd5b8491505b83821015620003a957858201830151818301840152908201906200038a565b83821115620003ba57848385830101525b9695505050505050565b60008060008060808587031215620003da578384fd5b84516001600160401b0380821115620003f1578586fd5b620003ff8883890162000311565b9550602087015191508082111562000415578485fd5b50620004248782880162000311565b935050604085015160ff811681146200043b578283fd5b6060959095015193969295505050565b60408101600884106200046e57634e487b7160e01b600052602160045260246000fd5b9281526020015290565b600082198211156200049857634e487b7160e01b81526011600452602481fd5b500190565b600181811c90821680620004b257607f821691505b60208210811415620004d457634e487b7160e01b600052602260045260246000fd5b50919050565b634e487b7160e01b600052604160045260246000fd5b610a5780620005006000396000f3fe608060405234801561001057600080fd5b50600436106100f55760003560e01c8063715018a611610097578063a9059cbb11610066578063a9059cbb146101f1578063dd62ed3e14610204578063f2fde38b1461023d578063ffa1ad741461025057600080fd5b8063715018a6146101b15780638da5cb5b146101bb57806395d89b41146101d6578063a457c2d7146101de57600080fd5b806323b872dd116100d357806323b872dd1461014d578063313ce56714610160578063395093511461017557806370a082311461018857600080fd5b806306fdde03146100fa578063095ea7b31461011857806318160ddd1461013b575b600080fd5b610102610258565b60405161010f91906108fc565b60405180910390f35b61012b6101263660046108d3565b6102ea565b604051901515815260200161010f565b6006545b60405190815260200161010f565b61012b61015b366004610898565b610300565b60055460405160ff909116815260200161010f565b61012b6101833660046108d3565b610369565b61013f61019636600461084c565b6001600160a01b031660009081526001602052604090205490565b6101b961039f565b005b6000546040516001600160a01b03909116815260200161010f565b6101026103b3565b61012b6101ec3660046108d3565b6103c2565b61012b6101ff3660046108d3565b610411565b61013f610212366004610866565b6001600160a01b03918216600090815260026020908152604080832093909416825291909152205490565b6101b961024b36600461084c565b61041e565b61013f600181565b60606003805461026790610973565b80601f016020809104026020016040519081016040528092919081815260200182805461029390610973565b80156102e05780601f106102b5576101008083540402835291602001916102e0565b820191906000526020600020905b8154815290600101906020018083116102c357829003601f168201915b5050505050905090565b60006102f73384846104af565b50600192915050565b600061030d8484846105d4565b61035f843361035a856040518060600160405280602881526020016109d5602891396001600160a01b038a166000908152600260209081526040808320338452909152902054919061075a565b6104af565b5060019392505050565b3360008181526002602090815260408083206001600160a01b038716845290915281205490916102f791859061035a908661049c565b6103a7610786565b6103b160006107e0565b565b60606004805461026790610973565b60006102f7338461035a856040518060600160405280602581526020016109fd602591393360009081526002602090815260408083206001600160a01b038d168452909152902054919061075a565b60006102f73384846105d4565b610426610786565b6001600160a01b0381166104905760405162461bcd60e51b815260206004820152602660248201527f4f776e61626c653a206e6577206f776e657220697320746865207a65726f206160448201526564647265737360d01b60648201526084015b60405180910390fd5b610499816107e0565b50565b60006104a8828461094f565b9392505050565b6001600160a01b0383166105115760405162461bcd60e51b8152602060048201526024808201527f45524332303a20617070726f76652066726f6d20746865207a65726f206164646044820152637265737360e01b6064820152608401610487565b6001600160a01b0382166105725760405162461bcd60e51b815260206004820152602260248201527f45524332303a20617070726f766520746f20746865207a65726f206164647265604482015261737360f01b6064820152608401610487565b6001600160a01b0383811660008181526002602090815260408083209487168084529482529182902085905590518481527f8c5be1e5ebec7d5bd14f71427d1e84f3dd0314c0f7b2291e5b200ac8c7c3b92591015b60405180910390a3505050565b6001600160a01b0383166106385760405162461bcd60e51b815260206004820152602560248201527f45524332303a207472616e736665722066726f6d20746865207a65726f206164604482015264647265737360d81b6064820152608401610487565b6001600160a01b03821661069a5760405162461bcd60e51b815260206004820152602360248201527f45524332303a207472616e7366657220746f20746865207a65726f206164647260448201526265737360e81b6064820152608401610487565b6106d7816040518060600160405280602681526020016109af602691396001600160a01b038616600090815260016020526040902054919061075a565b6001600160a01b038085166000908152600160205260408082209390935590841681522054610706908261049c565b6001600160a01b0380841660008181526001602052604090819020939093559151908516907fddf252ad1be2c89b69c2b068fc378daa952ba7f163c4a11628f55a4df523b3ef906105c79085815260200190565b6000818484111561077e5760405162461bcd60e51b815260040161048791906108fc565b505050900390565b6000546001600160a01b031633146103b15760405162461bcd60e51b815260206004820181905260248201527f4f776e61626c653a2063616c6c6572206973206e6f7420746865206f776e65726044820152606401610487565b600080546001600160a01b038381166001600160a01b0319831681178455604051919092169283917f8be0079c531659141344cd1fd0a4f28419497f9722a3daafe3b4186f6b6457e09190a35050565b80356001600160a01b038116811461084757600080fd5b919050565b60006020828403121561085d578081fd5b6104a882610830565b60008060408385031215610878578081fd5b61088183610830565b915061088f60208401610830565b90509250929050565b6000806000606084860312156108ac578081fd5b6108b584610830565b92506108c360208501610830565b9150604084013590509250925092565b600080604083850312156108e5578182fd5b6108ee83610830565b946020939093013593505050565b6000602080835283518082850152825b818110156109285785810183015185820160400152820161090c565b818111156109395783604083870101525b50601f01601f1916929092016040019392505050565b6000821982111561096e57634e487b7160e01b81526011600452602481fd5b500190565b600181811c9082168061098757607f821691505b602082108114156109a857634e487b7160e01b600052602260045260246000fd5b5091905056fe45524332303a207472616e7366657220616d6f756e7420657863656564732062616c616e636545524332303a207472616e7366657220616d6f756e74206578636565647320616c6c6f77616e636545524332303a2064656372656173656420616c6c6f77616e63652062656c6f77207a65726fa2646970667358221220da03cce8e6afbe98d3596ba15bb3e0e868ffe2b2b16a7819c4bba52aff7b5bfa64736f6c63430008040033a26469706673582212205d3844da905c39dbc52f954c19f5c681b7cf971c9f629b19693e937feda074ce64736f6c63430008040033",
    "linkReferences": {},
    "deployedLinkReferences": {}
}